S00F00006D617070696E672E7372656329
S113000054C0000070C000006EC000006CC000004E
S11300106AC0000068C0000066C0000064C0000040
S113002062C0000060C000005EC000005CC0000050
S11300305AC0000058C0000056C0000054C0000060
S113004052C0000050C000004EC000004CC0000070
S11300504AC0000048C0000046C0000044C0000080
S113006042C0000040C000003EC000003CC0000090
S11300703AC0000038C0000036C0000034C00000A0
S113008032C0000030C000002EC0000005A84CCDD6
S1130090B2D44EB93836A9020C50B9918688083CBE
S11300A0A6AAAA2ABE000000803F11241FBECFEFDB
S11300B0D0E4DEBFCDBF18E0A0E0B1E0E2E5F6E1B8
S11300C000E00BBF02C007900D92A430B107D9F72E
S11300D028E0A4E0B8E001C01D92A035B207E1F722
S11300E0C2D70C94270B8CCF0F931F938E3191059D
S11300F0B0F46E317105B0F4660F771F629FF001A2
S1130100639FF00D729FF00D11240E0F1F1F880FB7
S1130110991FF801E80FF91F8081918105C087E5D7
S113012094E002C087E594E01F910F910895EF9247
S1130130FF920F931F938E319105C0F46E317105B8
S1130140C0F4660F771F609FF001619FF00D709FF0
S1130150F00D1124EE0EFF1E880F991FF701E80F12
S1130160F91F5183408380E090E005C087E594E067
S113017002C087E594E01F910F91FF90EF900895DE
S1130180803D2DEF920709F481C0883F2DEF92073F
S113019009F47FC080322EEF920709F47DC08834C1
S11301A02EEF920709F47BC080372EEF920709F4F3
S11301B079C088392EEF920709F477C0803C2EEF7E
S11301C0920709F475C0883E2EEF920709F473C0B4
S11301D0803F910509F472C088332FEF920709F428
S11301E070C080362FEF920709F46EC088382FEF65
S11301F0920709F46CC0803B2FEF920709F46AC0A0
S1130200883D2FEF920709F468C0009709F468C08D
S11302108832910509F467C08035910509F466C0F8
S11302208837910509F465C0803A910509F464C0E2
S1130230883C910509F463C0883121E0920709F4F0
S113024061C0803421E0920709F45FC0883621E060
S1130250920709F45DC0803921E0920709F45BC07C
S1130260883B21E0920709F459C0803E21E09207BF
S113027009F457C0883022E0920709F455C080334E
S1130280924009F054C08CE190E0089580E090E041
S1130290089581E090E0089582E090E0089583E07D
S11302A090E0089584E090E0089585E090E008955A
S11302B086E090E0089587E090E0089588E090E07B
S11302C0089589E090E008958AE090E008958BE035
S11302D090E008958CE090E008958DE090E008951A
S11302E08EE090E008958FE090E0089580E190E042
S11302F0089581E190E0089582E190E0089583E11A
S113030090E0089585E190E0089586E190E00895F5
S113031087E190E0089588E190E0089589E190E014
S113032008958AE190E008958BE190E0089587E5CF
S113033094E00895883F2DEF920709F47CC0803241
S11303402EEF920709F47AC088342EEF920709F44D
S113035078C080372EEF920709F476C088392EEFE3
S1130360920709F474C0803C2EEF920709F472C01E
S1130370883E2EEF920709F470C0803F910509F47E
S11303806FC088332FEF920709F46DC080362FEFCA
S1130390920709F46BC088382FEF920709F469C0FB
S11303A0803B2FEF920709F467C0883D2FEF920737
S11303B009F465C0009709F465C08832910509F411
S11303C064C08035910509F463C08837910509F448
S11303D062C0803A910509F461C0883C910509F432
S11303E060C0883121E0920709F45EC0803421E0C6
S11303F0920709F45CC0883621E0920709F45AC0D8
S1130400803921E0920709F458C0883B21E0920723
S113041009F456C0803E21E0920709F454C08830A4
S113042022E0920709F452C08033924009F051C08F
S113043080E090E008958BE190E008958AE190E0F7
S1130440089589E190E0089588E190E0089587E1B6
S113045090E0089586E190E0089585E190E00895A4
S113046084E190E0089583E190E0089582E190E0D2
S1130470089581E190E0089580E190E008958FE08F
S113048090E008958EE090E008958DE090E0089566
S11304908CE090E008958BE090E008958AE090E08D
S11304A0089589E090E0089587E090E0089586E05B
S11304B090E0089585E090E0089584E090E0089548
S11304C083E090E0089582E090E0089581E090E078
S11304D0089587E594E00895CF92DF92EF92FF921A
S11304E00F931F93CF93DF939B01442737FD4095D0
S11304F0542F1216130614061506E4F4E82FF92FE8
S1130500DB01AA0FBB1FC0E0D0E060E070E0CB01CC
S1130510019111916801EE24D7FCE094FE2C6C0D3E
S11305207D1D8E1D9F1D2296CA17DB0789F70E9429
S1130530E90A03C020E030E0A901C901DF91CF91AD
S11305401F910F91FF90EF90DF90CF9008954F92FD
S11305505F926F927F928F929F92AF92BF92CF924F
S1130560DF92EF92FF920F931F93CF93DF936091EB
S11305705C0770915D07B0DF00916007109161071F
S11305800F3F2FEF120709F44DC0E0906207F0907F
S11305906307EEE9F7E0000F111F0056184F0F2E06
S11305A0F7E68F2EFBE29F2EA12CB12CF02D40E11B
S11305B057E260E070E0DD24D394C12CA191B191A5
S11305C0EC01CA1BDB0B9E0122F4222733272C1BD0
S11305D03D0BE9012901662457FC6094762C2D2DEE
S11305E044165506660677060CF02C2D222371F06E
S11305F02D2DCE15DF050CF02C2D222339F04D01C5
S1130600AA2497FCA094BA2CB301A201E017F10725
S1130610A9F687E688168BE29806A104B10429F0AE
S1130620C40105C081E090E002C081E090E0DF9168
S1130630CF911F910F91FF90EF90DF90CF90BF90DB
S1130640AF909F908F907F906F905F904F900895A0
S11306504F925F926F927F928F929F92AF92BF92CE
S1130660CF92DF92EF92FF920F931F93CF93DF937A
S113067060915C0770915D072FDF8C01E0905E074D
S1130680F0905F072FEFE216F20609F444C0C09021
S11306906207D0906307E4E6F7E0C701880F991F6B
S11306A09C012A59384F790187E69BE2A0E0B0E02B
S11306B040E157E260E070E0AA24A394B12C819059
S11306C09190E801C819D9099E0122F42227332701
S11306D02C1B3D0BE9012901662457FC6094762C00
S11306E02A2D44165506660677060CF02B2D222378
S11306F071F02A2DCC15DD050CF02B2D222339F0B9
S1130700C401AA2797FDA095BA2FB301A201EE1543
S1130710FF05A9F604C087E69BE2A0E0B0E0DF9104
S1130720CF911F910F91FF90EF90DF90CF90BF90EA
S1130730AF909F908F907F906F905F904F900895AF
S11307407F928F929F92AF92BF92CF92DF92EF925D
S1130750FF920F931F93CF93DF93EB0161307105E9
S113076009F45AC060915C0770915D07B5DEE090B2
S11307706007F09061072FEFE216F20609F442C019
S1130780EEE9F7E09701220F331FA9014056584FB5
S11307907A010F2EF7E68F2EFBE29F2EA12CB12CAF
S11307A0F02D00E117E220E030E0CC24C394712C5A
S11307B0A191B191BC016A1B7B0BAB0122F44427CC
S11307C05527461B570B662757FD6095762FDC2C63
S11307D040175107620773070CF0D72CDD2071F026
S11307E0DC2CAC17BD0709F4D72CDD2039F04D0102
S11307F0AA2497FCA094BA2C8A019B01EE15FF054C
S1130800B9F608C00F2EF7E68F2EFBE29F2EA12C1F
S1130810B12CF02DC40102C081E090E0DF91CF91B2
S11308201F910F91FF90EF90DF90CF90BF90AF900A
S11308309F908F907F9008957F928F929F92AF9216
S1130840BF92CF92DF92EF92FF920F931F93CF93B9
S1130850DF93EB016130710509F45AC060915C07C4
S113086070915D0739DEE0905E07F0905F072FEF2F
S1130870E216F20609F442C0E4E6F7E09701220F1B
S1130880331FA9014A59584F7A010F2EF7E68F2ECC
S1130890FBE29F2EA12CB12CF02D00E117E220E009
S11308A030E0CC24C394712CA191B191BC016A1B9A
S11308B07B0BAB0122F444275527461B570B6627B5
S11308C057FD6095762FDC2C40175107620773079C
S11308D00CF0D72CDD2071F0DC2CAC17BD0709F42B
S11308E0D72CDD2039F04D01AA2497FCA094BA2C12
S11308F08A019B01EE15FF05B9F608C00F2EF7E635
S11309008F2EFBE29F2EA12CB12CF02DC40102C02E
S113091081E090E0DF91CF911F910F91FF90EF90D4
S1130920DF90CF90BF90AF909F908F907F9008956D
S11309301616170694F4FC01AB01440F551F480F1B
S1130940591F80E093E821913191821793070CF4A9
S1130950C901E417F507B9F7089580E093E808950D
S11309601616170694F4FC01AB01440F551F480FEB
S1130970591F80E09DE721913191281739070CF424
S1130980C901E417F507B9F7089580E09DE70895D4
S1130990AF92BF92CF92DF92EF92FF920F931F9389
S11309A0CF93DF937C018B01C0915C07D0915D07ED
S11309B0BE01D6DF6C01BE01C701BADF5C01BE0116
S11309C0C801CEDF7C01BE01C801B2DF40915807E7
S11309D050915907AC18BD08950122F422273327FA
S11309E02A193B092417350774F08E199F099C01B5
S11309F022F422273327281B390B81E0421753079F
S1130A001CF480E001C081E0DF91CF911F910F9130
S1130A10FF90EF90DF90CF90BF90AF900895AF928A
S1130A20BF92CF92DF92EF92FF920F931F93CF93D7
S1130A30DF937C018B01C0915C07D0915D07BE01FF
S1130A408FDF6C01BE01C70173DF7C01BE01C801E9
S1130A5087DF5C01BE01C8016BDF40915A075091EA
S1130A605B078A199B099C0122F422273327281B40
S1130A70390B91E0421753070CF090E0EC18FD0895
S1130A80970122F4222733272E193F0981E04217C8
S1130A9053070CF480E08923DF91CF911F910F91CC
S1130AA0FF90EF90DF90CF90BF90AF9008958F921A
S1130AB09F92AF92BF92CF92DF92EF92FF921F93D9
S1130AC0CF93DF937C016B0142DDEC01BC01C701D4
S1130AD037DE5C01B601C701A2DF182FB601C701DA
S1130AE057DF882331F1112321F1C0900408D090FD
S1130AF00508E0900608F0900708BE01882777FDF6
S1130B008095982FCCD34B015C019B01AC01C701AC
S1130B10B6018BD388231CF4CE0144962BC0A501C7
S1130B209401C701B601A4D41816E4F4CE01449785
S1130B3021C01130D1F08823C1F0AC0EBD1EBB2002
S1130B401CF48FEFA81AB80AB594A794CA15DB054C
S1130B501CF4CE0144960EC0AC16BD064CF4CE0176
S1130B60449708C081E090E005C083E090E002C0B3
S1130B7082E090E0DF91CF911F91FF90EF90DF90A2
S1130B80CF90BF90AF909F908F9008958F929F9237
S1130B90AF92BF92CF92DF92EF92FF921F93CF93C7
S1130BA0DF936C017B01CB0153DDEC01BC01C70178
S1130BB043DE5C01B701C60132DF182FB701C6015D
S1130BC0E7DE8823B1F01123A1F0CE018A0D9B1D2D
S1130BD099230CF4019695958795C817D9071CF4A9
S1130BE0CE01449636C08C179D075CF5CE01449720
S1130BF030C0113049F1882339F1C0900808D090F1
S1130C000908E0900A08F0900B08BE01882777FDD8
S1130C108095982F44D34B015C019B01AC01C70123
S1130C20B60103D388231CF4CE01449612C0A50157
S1130C309401C701B6011CD418164CF4CE01449794
S1130C4008C082E090E005C083E090E002C081E04B
S1130C5090E0DF91CF911F91FF90EF90DF90CF90C4
S1130C60BF90AF909F908F900895CF92DF92EF92B4
S1130C70FF920F931F93CF93DF93EC016B0117DF68
S1130C807C01B601CE0182DF6C01C70179DAEC0187
S1130C90C60150DB78010DE110E02CE130E041E0C9
S1130CA050E0BC01CE0143DADF91CF911F910F9147
S1130CB0FF90EF90DF90CF9008950F931F93CF9301
S1130CC0DF93209102083091030812161306FCF4F6
S1130CD0C82FD92F00E010E020E030E044EB52E4CC
S1130CE0688179818A819B813CD22EE23AEF4EE879
S1130CF05CE3C2D369937993899399930F5F1F4FF0
S1130D008091020890910308081719072CF3DF91CA
S1130D10CF911F910F9108954F925F926F927F929E
S1130D208F929F92AF92BF92CF92DF92EF92FF92F7
S1130D300F931F93CF93DF934090020850900308C2
S1130D40141415040CF042C00F2EFCE0AF2EF8E092
S1130D50BF2EF02DC82FD92F062F172F0F2EF8E3F3
S1130D60CF2EF8E0DF2EF02DE12CF12C3E014801CE
S1130D70F80161917191819191918F015AD29B01F6
S1130D80AC01699179918991999176D3F501619337
S1130D907193819391935F01F401608171818281E8
S1130DA09381CDD39B01AC01F30160817181828178
S1130DB0938162D3F60161937193819391936F014F
S1130DC0FFEFEF1AFF0AE414F50484F2DF91CF91E8
S1130DD01F910F91FF90EF90DF90CF90BF90AF9055
S1130DE09F908F907F906F905F904F9008952F9277
S1130DF03F924F925F926F927F928F929F92AF92A7
S1130E00BF92CF92DF92EF92FF920F931F93CF93F3
S1130E10DF93CDB7DEB728970FB6F894DEBF0FBEC9
S1130E20CDBF29833A834B835C836D837E838F8319
S1130E309887209002083090030812141304BCF51C
S1130E4049805A806B807C80CD80DE80EF80F8847E
S1130E500F2EFCE08F2EF8E09F2EF02D0F2EF8E3DE
S1130E60AF2EF8E0BF2EF02D00E010E0A3019201B8
S1130E70F401608171818281938173D1F401619362
S1130E807193819391934F01A7019601F5016081BC
S1130E9071818281938165D1F5016193719381930D
S1130EA091935F010F5F1F4F02151305FCF2289603
S1130EB00FB6F894DEBF0FBECDBFDF91CF911F9167
S1130EC00F91FF90EF90DF90CF90BF90AF909F90E5
S1130ED08F907F906F905F904F903F902F900895E8
S1130EE0EF92FF920F931F93CF93DF9300D000D024
S1130EF0CDB7DEB71A8219821C821B822B813C81FA
S1130F0000915C0710915D07200F311F809102084A
S1130F10909103080196281739070CF460C066C045
S1130F20E980FA80EB81FC81C701880F991F9C013D
S1130F30225D374F7901EE0FFF1FEE0FFF1FE45FB5
S1130F40F74F608171818281938176D1F70171833A
S1130F506083E980FA80EB81FC81C701880F991FC7
S1130F609C012E5D374F7901EE0FFF1FEE0FFF1F1F
S1130F70E85CF74F60817181828193815DD1F701D3
S1130F807183608389819A8101969A8389838B8195
S1130F909C8101969C838B8389819A818017910718
S1130FA00CF4BECF00E011E02DE130E04CE150E064
S1130FB062E278E08EE298E058DE1A8219822B8190
S1130FC03C8100915C0710915D07200F311F8091D7
S1130FD00208909103080196281739073CF4898187
S1130FE09A81801791070CF49BCFDCCF0F900F9060
S1130FF00F900F90DF91CF911F910F91FF90EF9081
S11310000895EF92FF920F931F93CF93DF93CDB781
S1131010DEB728970FB6F894DEBF0FBECDBF298385
S11310203A834B835C836D837E838F839887C70168
S113103044DEB701C80170DE29813A814B815C81AD
S11310406D817E818F819885D2DE4ADF28960FB626
S1131050F894DEBF0FBECDBFDF91CF911F910F91EA
S1131060FF90EF900895AF92BF92CF92DF92EF92EC
S1131070FF920F931F931092040810920508109288
S11310800608109207081092080810920908109296
S11310900A0810920B08A0900208B09003080F2EC3
S11310A0F3E0CF2ED12CF02D0F2EFAEDEF2EF7E03A
S11310B0FF2EF02D0EEE17E020E030910508409150
S11310C006085091070860E07091090880910A08A9
S11310D090910B0896DF00E011E02DE130E04CE147
S11310E050E06EE070E08FE090E00E947400909316
S11310F04D0880934C082DE130E04CE150E06DE068
S113110070E08EE090E00E94740090932108809338
S113111020082DE130E04CE150E06EE070E08DE01D
S113112090E00E94740090932D0880932C082DE188
S113113030E04CE150E06FE070E08EE090E00E941F
S1131140740090934F0880934E0880E090E01F91C4
S11311500F91FF90EF90DF90CF90BF90AF900895E4
S11311605058BB27AA270ED038C101D130F006D180
S113117020F031F49F3F11F41EF4F6C00EF4E09514
S1131180E7FBECC0E92F4BD180F3BA176207730772
S11311908407950718F071F49EF563C10EF4E09589
S11311A00B2EBA2FA02D0B01B90190010C01CA011D
S11311B0A0011124FF27591B99F0593F50F4503EC8
S11311C068F11A16F040A22F232F342F4427585FBA
S11311D0F3CF469537952795A795F0405395C9F7D2
S11311E07EF41F16BA0B620B730B840BBAF091508A
S11311F0A1F0FF0FBB1F661F771F881FC2F70EC029
S1131200BA0F621F731F841F48F4879577956795FB
S1131210B795F7959E3F08F0B3CF9395880F08F0E4
S11312209927EE0F97958795089574D008F481E077
S11312300895ACD0E395E2C004D06894B11112C112
S11312400895F5D088F09F5790F0B92F9927B7519A
S1131250A0F0D1F0660F771F881F991F1AF0BA9576
S1131260C9F712C0B13081F0FCD0B1E00895F9C0E3
S1131270672F782F8827B85F39F0B93FCCF386956C
S113128077956795B395D9F73EF4909580957095C9
S113129061957F4F8F4F9F4F0895E89409C097FB46
S11312A03EF490958095709561957F4F8F4F9F4F39
S11312B09923A9F0F92F96E9BB279395F69587957D
S11312C077956795B795F111F8CFFAF4BB0F11F440
S11312D060FF1BC06F5F7F4F8F4F9F4F16C08823E7
S11312E011F096E911C0772321F09EE8872F762F1D
S11312F005C0662371F096E8862F70E060E02AF05E
S11313009A95660F771F881FDAF7880F9695879549
S113131097F90895990F0008550FAA0BE0E8FEEF1E
S113132016161706E807F907C0F012161306E407A5
S1131330F50798F0621B730B840B950B39F40A269E
S113134061F0232B242B252B21F408950A2609F47C
S1131350A140A6958FEF811D811D089597F99F6780
S113136080E870E060E008959FEF80EC0895002429
S11313700A941616170618060906089500240A94F6
S113138012161306140605060895EECF50D0E8F39E
S1131390E894E0E0BB279F57F0F02AED3FE049ECEA
S11313A006C0EE0FBB0F661F771F881F28F0B23AE6
S11313B062077307840728F0B25A620B730B840B1D
S11313C0E3959A9572F7803830F49A95BB0F661FAF
S11313D0771F881FD2F79048BAC0092E0394000CD7
S11313E011F4882352F0BB0F40F4BF2B11F460FFBB
S11313F004C06F5F7F4F8F4F9F4F0895EF93E0FFBF
S113140006C0A2EA2AED3FE049EC5FEBBBDEE5DF74
S11314100F90039401FC9058ECE8F0E0A4C057FD51
S11314209058440F551F59F05F3F71F04795880F4E
S113143097FB991F61F09F3F79F0879508951216E5
S113144013061406551FF2CF4695F1DF08C0161691
S113145017061806991FF1CF869571056105089442
S11314600895E894BB2766277727CB0197F9089559
S113147051DF08F48FEF08950BD0AFCF78DF28F059
S11314807DDF18F0952309F069CF6ECF1124EACFE0
S1131490C6DFA0F3959FD1F3950F50E0551F629FCF
S11314A0F001729FBB27F00DB11D639FAA27F00DB9
S11314B0B11DAA1F649F6627B00DA11D661F829FE0
S11314C02227B00DA11D621F739FB00DA11D621FC5
S11314D0839FA00D611D221F749F3327A00D611DE2
S11314E0231F849F600D211D822F762F6A2F1124C4
S11314F09F5750408AF0E1F088234AF0EE0FFF1F17
S1131500BB1F661F771F881F91505040A9F79E3F4D
S1131510510570F023CFA6CF5F3FECF3983EDCF388
S1131520869577956795B795F795E7959F5FC1F78A
S1131530FE2B880F911D9695879597F908959F9393
S113154025DF0F9007FCEE5F59CF9F3F31F091509C
S113155020F4879577956795B795880F911D969593
S1131560879597F908959F938F937F936F93FF9334
S1131570EF939B01AC0180DFEF91FF9105D02F9198
S11315803F914F915F9178CFDF93CF931F930F9348
S1131590FF92EF92DF927B018C01689405C0DA2EF2
S11315A0EF0176DFFE01E894A591259135914591EF
S11315B05591AEF3EF01E6DDFE019701A801DA943F
S11315C079F7DF90EF90FF900F911F91CF91DF910A
S11315D00895052E97FB16F400940FD057FD05D0FF
S11315E014D007FC02D046F408C0509540953095BD
S11315F021953F4F4F4F5F4F08959095809570957B
S113160061957F4F8F4F9F4F0895A1E21A2EAA1B19
S1131610BB1BFD010DC0AA1FBB1FEE1FFF1FA2179E
S1131620B307E407F50720F0A21BB30BE40BF50B9B
S1131630661F771F881F991F1A9469F76095709524
S1131640809590959B01AC01BD01CF010895F8945C
S1051650FFCFC6
S11316520000000000000000000000000000000084
S11316620000000000000000000000000000000074
S11316720000000000000000000000000000000064
S11316820000000000000000000000000000000054
S1131992000000000000000004000000000000003D
S11319A20000000000000000000000000000000031
S11319B20000000000000000000000000000000021
S11319C20000000000000000000000000000000011
S11319D20000000000000000000000000000000001
S1131CA200000000000000000A000A0005001D00F8
S1131CB21E002800E4FD0CFE34FE5CFE84FEACFE35
S1131CC2D4FEFCFE24FF4CFF74FF9CFFC4FFECFF18
S1131CD214003C0064008C00B400DC0004012C01FC
S1131CE254017C01A401CC01F4011C024402BCFD98
S1131CF2E4FD0CFE34FE5CFE84FEACFED4FEFCFE6F
S1131D0224FF4CFF74FF9CFFC4FFECFF14003C0053
S1131D1264008C00B400DC0004012C0154017C0139
S1131D22A401CC01F4011C02440200809D43008002
S1131D32AC43000000000000704100003442713DD9
S1131D42E2410000C0410000A0410000C041B81EB1
S1071D520D42050035
S9030000FC
